{
  "_format": "hh-sol-artifact-1",
  "contractName": "UserProfileLib",
  "sourceName": "contracts/UserProfileLib.sol",
  "abi": [
    {
      "inputs": [
        {
          "internalType": "address",
          "name": "zero",
          "type": "address"
        }
      ],
      "name": "NOT_ALLOWED",
      "type": "error"
    },
    {
      "anonymous": false,
      "inputs": [
        {
          "indexed": true,
          "internalType": "address",
          "name": "user",
          "type": "address"
        },
        {
          "indexed": true,
          "internalType": "string",
          "name": "_userPicture",
          "type": "string"
        }
      ],
      "name": "PictureUpdated",
      "type": "event"
    },
    {
      "anonymous": false,
      "inputs": [
        {
          "indexed": true,
          "internalType": "address",
          "name": "userAddress",
          "type": "address"
        },
        {
          "indexed": true,
          "internalType": "string",
          "name": "username",
          "type": "string"
        }
      ],
      "name": "Registered",
      "type": "event"
    },
    {
      "anonymous": false,
      "inputs": [
        {
          "indexed": true,
          "internalType": "string",
          "name": "username",
          "type": "string"
        },
        {
          "indexed": true,
          "internalType": "uint256",
          "name": "timeOfChange",
          "type": "uint256"
        }
      ],
      "name": "UsernameUpdated",
      "type": "event"
    },
    {
      "inputs": [
        {
          "internalType": "address",
          "name": "_add",
          "type": "address"
        }
      ],
      "name": "addressZeroCheck",
      "outputs": [],
      "stateMutability": "pure",
      "type": "function"
    }
  ],
  "bytecode": "0x6134f961003a600b82828239805160001a60731461002d57634e487b7160e01b600052600060045260246000fd5b30600052607381538281f3fe73000000000000000000000000000000000000000030146080604052600436106100de5760003560e01c80637bd659361161008b578063ab9f929211610065578063ab9f929214610200578063cea235d914610213578063f0b7c3ee1461023357600080fd5b80637bd65936146101a05780638fb4eab3146101c05780639f4f36d2146101e057600080fd5b80634c23c615116100bc5780634c23c6151461014d57806351bf3ff314610160578063689483861461018057600080fd5b80630576fd61146100e357806312b6079e146101055780631b3600971461012d575b600080fd5b8180156100ef57600080fd5b506101036100fe366004612ab7565b610253565b005b610118610113366004612afd565b6103d0565b60405190151581526020015b60405180910390f35b61014061013b366004612b29565b610406565b6040516101249190612dd4565b61014061015b366004612b29565b611108565b81801561016c57600080fd5b5061010361017b366004612f16565b611df5565b81801561018c57600080fd5b5061010361019b36600461300c565b611e6b565b8180156101ac57600080fd5b506101036101bb366004612f16565b611f8c565b8180156101cc57600080fd5b506101036101db366004612f16565b611fb1565b8180156101ec57600080fd5b506101036101fb366004612ab7565b611fd6565b61010361020e36600461316d565b612202565b81801561021f57600080fd5b5061010361022e366004612f16565b61224c565b610246610241366004612afd565b6122c0565b604051610124919061318f565b6001600160a01b03818116600090815260208581526040808320868516845290915290206009015416156103ca576001600160a01b038082166000908152602085815260408083209386168352929052908120906102b1828261290d565b6102bf60018301600061290d565b6102cd60028301600061290d565b6102db600383016000612947565b6102e960048301600061290d565b6102f7600583016000612965565b600682016000905560078201600090556008820160006103179190612965565b6009820180546001600160a01b0319169055610337600a8301600061290d565b610345600b8301600061290d565b600c820160009055600d820160009055600e820160006103659190612965565b50506001600160a01b03811660009081526020859052604081206006018054600192906103939084906131b8565b90915550506001600160a01b03821660009081526020859052604081206007018054600192906103c49084906131b8565b90915550505b50505050565b6001600160a01b038181166000908152602084905260408120600901549091166103fc57506000610400565b5060015b92915050565b60606000846000846001600160a01b03166001600160a01b03168152602001908152602001600020604051806101e001604052908160008201805461044a906131cb565b80601f0160208091040260200160405190810160405280929190818152602001828054610476906131cb565b80156104c35780601f10610498576101008083540402835291602001916104c3565b820191906000526020600020905b8154815290600101906020018083116104a657829003601f168201915b505050505081526020016001820180546104dc906131cb565b80601f0160208091040260200160405190810160405280929190818152602001828054610508906131cb565b80156105555780601f1061052a57610100808354040283529160200191610555565b820191906000526020600020905b81548152906001019060200180831161053857829003601f168201915b5050505050815260200160028201805461056e906131cb565b80601f016020809104026020016040519081016040528092919081815260200182805461059a906131cb565b80156105e75780601f106105bc576101008083540402835291602001916105e7565b820191906000526020600020905b8154815290600101906020018083116105ca57829003601f168201915b5050505050815260200160038201805480602002602001604051908101604052809291908181526020016000905b828210156106c1578382906000526020600020018054610634906131cb565b80601f0160208091040260200160405190810160405280929190818152602001828054610660906131cb565b80156106ad5780601f10610682576101008083540402835291602001916106ad565b820191906000526020600020905b81548152906001019060200180831161069057829003601f168201915b505050505081526020019060010190610615565b5050505081526020016004820180546106d9906131cb565b80601f0160208091040260200160405190810160405280929190818152602001828054610705906131cb565b80156107525780601f1061072757610100808354040283529160200191610752565b820191906000526020600020905b81548152906001019060200180831161073557829003601f168201915b50505050508152602001600582018054806020026020016040519081016040528092919081815260200182805480156107b457602002820191906000526020600020905b81546001600160a01b03168152600190910190602001808311610796575b5050505050815260200160068201548152602001600782015481526020016008820180548060200260200160405190810160405280929190818152602001828054801561082a57602002820191906000526020600020905b81546001600160a01b0316815260019091019060200180831161080c575b505050918352505060098201546001600160a01b03166020820152600a8201805460409092019161085a906131cb565b80601f0160208091040260200160405190810160405280929190818152602001828054610886906131cb565b80156108d35780601f106108a8576101008083540402835291602001916108d3565b820191906000526020600020905b8154815290600101906020018083116108b657829003601f168201915b50505050508152602001600b820180546108ec906131cb565b80601f0160208091040260200160405190810160405280929190818152602001828054610918906131cb565b80156109655780601f1061093a57610100808354040283529160200191610965565b820191906000526020600020905b81548152906001019060200180831161094857829003601f168201915b50505050508152602001600c8201548152602001600d8201548152602001600e82018054806020026020016040519081016040528092919081815260200182805480156109d157602002820191906000526020600020905b8154815260200190600101908083116109bd575b5050509190925250505060c08101519091508067ffffffffffffffff8111156109fc576109fc612e36565b604051908082528060200260200182016040528015610aaf57816020015b610a9c604051806101e0016040528060608152602001606081526020016060815260200160608152602001606081526020016060815260200160008152602001600081526020016060815260200160006001600160a01b0316815260200160608152602001606081526020016000815260200160008152602001606081525090565b815260200190600190039081610a1a5790505b50925060005b818110156110fe578560008461010001518381518110610ad757610ad7613205565b60200260200101516001600160a01b03166001600160a01b031681526020019081526020016000206000866001600160a01b03166001600160a01b03168152602001908152602001600020604051806101e0016040529081600082018054610b3e906131cb565b80601f0160208091040260200160405190810160405280929190818152602001828054610b6a906131cb565b8015610bb75780601f10610b8c57610100808354040283529160200191610bb7565b820191906000526020600020905b815481529060010190602001808311610b9a57829003601f168201915b50505050508152602001600182018054610bd0906131cb565b80601f0160208091040260200160405190810160405280929190818152602001828054610bfc906131cb565b8015610c495780601f10610c1e57610100808354040283529160200191610c49565b820191906000526020600020905b815481529060010190602001808311610c2c57829003601f168201915b50505050508152602001600282018054610c62906131cb565b80601f0160208091040260200160405190810160405280929190818152602001828054610c8e906131cb565b8015610cdb5780601f10610cb057610100808354040283529160200191610cdb565b820191906000526020600020905b815481529060010190602001808311610cbe57829003601f168201915b5050505050815260200160038201805480602002602001604051908101604052809291908181526020016000905b82821015610db5578382906000526020600020018054610d28906131cb565b80601f0160208091040260200160405190810160405280929190818152602001828054610d54906131cb565b8015610da15780601f10610d7657610100808354040283529160200191610da1565b820191906000526020600020905b815481529060010190602001808311610d8457829003601f168201915b505050505081526020019060010190610d09565b505050508152602001600482018054610dcd906131cb565b80601f0160208091040260200160405190810160405280929190818152602001828054610df9906131cb565b8015610e465780601f10610e1b57610100808354040283529160200191610e46565b820191906000526020600020905b815481529060010190602001808311610e2957829003601f168201915b5050505050815260200160058201805480602002602001604051908101604052809291908181526020018280548015610ea857602002820191906000526020600020905b81546001600160a01b03168152600190910190602001808311610e8a575b50505050508152602001600682015481526020016007820154815260200160088201805480602002602001604051908101604052809291908181526020018280548015610f1e57602002820191906000526020600020905b81546001600160a01b03168152600190910190602001808311610f00575b505050918352505060098201546001600160a01b03166020820152600a82018054604090920191610f4e906131cb565b80601f0160208091040260200160405190810160405280929190818152602001828054610f7a906131cb565b8015610fc75780601f10610f9c57610100808354040283529160200191610fc7565b820191906000526020600020905b815481529060010190602001808311610faa57829003601f168201915b50505050508152602001600b82018054610fe0906131cb565b80601f016020809104026020016040519081016040528092919081815260200182805461100c906131cb565b80156110595780601f1061102e57610100808354040283529160200191611059565b820191906000526020600020905b81548152906001019060200180831161103c57829003601f168201915b50505050508152602001600c8201548152602001600d8201548152602001600e82018054806020026020016040519081016040528092919081815260200182805480156110c557602002820191906000526020600020905b8154815260200190600101908083116110b1575b5050505050815250508482815181106110e0576110e0613205565b602002602001018190525080806110f69061321b565b915050610ab5565b5050509392505050565b60606000846000846001600160a01b03166001600160a01b03168152602001908152602001600020604051806101e001604052908160008201805461114c906131cb565b80601f0160208091040260200160405190810160405280929190818152602001828054611178906131cb565b80156111c55780601f1061119a576101008083540402835291602001916111c5565b820191906000526020600020905b8154815290600101906020018083116111a857829003601f168201915b505050505081526020016001820180546111de906131cb565b80601f016020809104026020016040519081016040528092919081815260200182805461120a906131cb565b80156112575780601f1061122c57610100808354040283529160200191611257565b820191906000526020600020905b81548152906001019060200180831161123a57829003601f168201915b50505050508152602001600282018054611270906131cb565b80601f016020809104026020016040519081016040528092919081815260200182805461129c906131cb565b80156112e95780601f106112be576101008083540402835291602001916112e9565b820191906000526020600020905b8154815290600101906020018083116112cc57829003601f168201915b5050505050815260200160038201805480602002602001604051908101604052809291908181526020016000905b828210156113c3578382906000526020600020018054611336906131cb565b80601f0160208091040260200160405190810160405280929190818152602001828054611362906131cb565b80156113af5780601f10611384576101008083540402835291602001916113af565b820191906000526020600020905b81548152906001019060200180831161139257829003601f168201915b505050505081526020019060010190611317565b5050505081526020016004820180546113db906131cb565b80601f0160208091040260200160405190810160405280929190818152602001828054611407906131cb565b80156114545780601f1061142957610100808354040283529160200191611454565b820191906000526020600020905b81548152906001019060200180831161143757829003601f168201915b50505050508152602001600582018054806020026020016040519081016040528092919081815260200182805480156114b657602002820191906000526020600020905b81546001600160a01b03168152600190910190602001808311611498575b5050505050815260200160068201548152602001600782015481526020016008820180548060200260200160405190810160405280929190818152602001828054801561152c57602002820191906000526020600020905b81546001600160a01b0316815260019091019060200180831161150e575b505050918352505060098201546001600160a01b03166020820152600a8201805460409092019161155c906131cb565b80601f0160208091040260200160405190810160405280929190818152602001828054611588906131cb565b80156115d55780601f106115aa576101008083540402835291602001916115d5565b820191906000526020600020905b8154815290600101906020018083116115b857829003601f168201915b50505050508152602001600b820180546115ee906131cb565b80601f016020809104026020016040519081016040528092919081815260200182805461161a906131cb565b80156116675780601f1061163c57610100808354040283529160200191611667565b820191906000526020600020905b81548152906001019060200180831161164a57829003601f168201915b50505050508152602001600c8201548152602001600d8201548152602001600e82018054806020026020016040519081016040528092919081815260200182805480156116d357602002820191906000526020600020905b8154815260200190600101908083116116bf575b5050509190925250505060c08101519091508067ffffffffffffffff8111156116fe576116fe612e36565b6040519080825280602002602001820160405280156117b157816020015b61179e604051806101e0016040528060608152602001606081526020016060815260200160608152602001606081526020016060815260200160008152602001600081526020016060815260200160006001600160a01b0316815260200160608152602001606081526020016000815260200160008152602001606081525090565b81526020019060019003908161171c5790505b50925060005b818110156110fe576001600160a01b038516600090815260208790526040812060a08501518051919291849081106117f1576117f1613205565b60200260200101516001600160a01b03166001600160a01b03168152602001908152602001600020604051806101e0016040529081600082018054611835906131cb565b80601f0160208091040260200160405190810160405280929190818152602001828054611861906131cb565b80156118ae5780601f10611883576101008083540402835291602001916118ae565b820191906000526020600020905b81548152906001019060200180831161189157829003601f168201915b505050505081526020016001820180546118c7906131cb565b80601f01602080910402602001604051908101604052809291908181526020018280546118f3906131cb565b80156119405780601f1061191557610100808354040283529160200191611940565b820191906000526020600020905b81548152906001019060200180831161192357829003601f168201915b50505050508152602001600282018054611959906131cb565b80601f0160208091040260200160405190810160405280929190818152602001828054611985906131cb565b80156119d25780601f106119a7576101008083540402835291602001916119d2565b820191906000526020600020905b8154815290600101906020018083116119b557829003601f168201915b5050505050815260200160038201805480602002602001604051908101604052809291908181526020016000905b82821015611aac578382906000526020600020018054611a1f906131cb565b80601f0160208091040260200160405190810160405280929190818152602001828054611a4b906131cb565b8015611a985780601f10611a6d57610100808354040283529160200191611a98565b820191906000526020600020905b815481529060010190602001808311611a7b57829003601f168201915b505050505081526020019060010190611a00565b505050508152602001600482018054611ac4906131cb565b80601f0160208091040260200160405190810160405280929190818152602001828054611af0906131cb565b8015611b3d5780601f10611b1257610100808354040283529160200191611b3d565b820191906000526020600020905b815481529060010190602001808311611b2057829003601f168201915b5050505050815260200160058201805480602002602001604051908101604052809291908181526020018280548015611b9f57602002820191906000526020600020905b81546001600160a01b03168152600190910190602001808311611b81575b50505050508152602001600682015481526020016007820154815260200160088201805480602002602001604051908101604052809291908181526020018280548015611c1557602002820191906000526020600020905b81546001600160a01b03168152600190910190602001808311611bf7575b505050918352505060098201546001600160a01b03166020820152600a82018054604090920191611c45906131cb565b80601f0160208091040260200160405190810160405280929190818152602001828054611c71906131cb565b8015611cbe5780601f10611c9357610100808354040283529160200191611cbe565b820191906000526020600020905b815481529060010190602001808311611ca157829003601f168201915b50505050508152602001600b82018054611cd7906131cb565b80601f0160208091040260200160405190810160405280929190818152602001828054611d03906131cb565b8015611d505780601f10611d2557610100808354040283529160200191611d50565b820191906000526020600020905b815481529060010190602001808311611d3357829003601f168201915b50505050508152602001600c8201548152602001600d8201548152602001600e8201805480602002602001604051908101604052809291908181526020018280548015611dbc57602002820191906000526020600020905b815481526020019060010190808311611da8575b505050505081525050848281518110611dd757611dd7613205565b60200260200101819052508080611ded9061321b565b9150506117b7565b6001600160a01b0382166000908152602084905260409020600b8101611e1b8382613283565b5042600c82018190556040518190611e34908590613343565b604051908190038120907fd47f275ea0e98a74579121438e494c23cbff8ddef6ef176c665a94cbbe7bd0c290600090a35050505050565b6001600160a01b03821660008181526020859052604090206009810180546001600160a01b03191690921790915581518190611ea79082613283565b5060208201516001820190611ebc9082613283565b5060408201516002820190611ed19082613283565b5060608201518051611eed916003840191602090910190612983565b5060808201516004820190611f029082613283565b5060a0820151600a820190611f179082613283565b5060c0820151600b820190611f2c9082613283565b5042600d820155604051611f4490600b83019061335f565b604051908190038120600983015490916001600160a01b03909116907fb3eccf73f39b1c07947c780b2b39df2a1bb058b4037b0a42d0881ca1a028a13290600090a350505050565b6001600160a01b03821660009081526020849052604090206002016103ca8282613283565b6001600160a01b03821660009081526020849052604090206001016103ca8282613283565b6001600160a01b038181166000908152602085815260408083208685168452909152902060090154166103ca576001600160a01b038083166000818152602087815260408083209486168352878252808320938352929052208061203a83826133d5565b5060018181019061204d908401826133d5565b50600281810190612060908401826133d5565b506003828101805461207592840191906129d9565b50600481810190612088908401826133d5565b506005828101805461209d9284019190612a21565b50600682015481600601556007820154816007015560088201816008019080546120c8929190612a21565b5060098281015490820180546001600160a01b0319166001600160a01b03909216919091179055600a80820190612101908401826133d5565b50600b81810190612114908401826133d5565b50600c82015481600c0155600d82015481600d0155600e820181600e0190805461213f929190612a21565b5050506001600160a01b038082166000908152602086905260408082209285168252812060068301805491926001926121799084906134b0565b90915550506005820180546001808201835560009283526020832090910180546001600160a01b0319166001600160a01b038816179055600783018054919290916121c59084906134b0565b90915550506008018054600181018255600091825260209091200180546001600160a01b0384166001600160a01b03199091161790555050505050565b6001600160a01b038116612249576040517f35ac4f050000000000000000000000000000000000000000000000000000000081526000600482015260240160405180910390fd5b50565b6001600160a01b0382166000908152602084905260409020600a016122718282613283565b50806040516122809190613343565b604051908190038120906001600160a01b038416907f0dc4cc575c29ce1a9eecfe6f5754513a1540819abad3d0287270c25437f5c0be90600090a3505050565b612342604051806101e0016040528060608152602001606081526020016060815260200160608152602001606081526020016060815260200160008152602001600081526020016060815260200160006001600160a01b0316815260200160608152602001606081526020016000815260200160008152602001606081525090565b6001600160a01b0382166000908152602084905260409081902081516101e08101909252805482908290612375906131cb565b80601f01602080910402602001604051908101604052809291908181526020018280546123a1906131cb565b80156123ee5780601f106123c3576101008083540402835291602001916123ee565b820191906000526020600020905b8154815290600101906020018083116123d157829003601f168201915b50505050508152602001600182018054612407906131cb565b80601f0160208091040260200160405190810160405280929190818152602001828054612433906131cb565b80156124805780601f1061245557610100808354040283529160200191612480565b820191906000526020600020905b81548152906001019060200180831161246357829003601f168201915b50505050508152602001600282018054612499906131cb565b80601f01602080910402602001604051908101604052809291908181526020018280546124c5906131cb565b80156125125780601f106124e757610100808354040283529160200191612512565b820191906000526020600020905b8154815290600101906020018083116124f557829003601f168201915b5050505050815260200160038201805480602002602001604051908101604052809291908181526020016000905b828210156125ec57838290600052602060002001805461255f906131cb565b80601f016020809104026020016040519081016040528092919081815260200182805461258b906131cb565b80156125d85780601f106125ad576101008083540402835291602001916125d8565b820191906000526020600020905b8154815290600101906020018083116125bb57829003601f168201915b505050505081526020019060010190612540565b505050508152602001600482018054612604906131cb565b80601f0160208091040260200160405190810160405280929190818152602001828054612630906131cb565b801561267d5780601f106126525761010080835404028352916020019161267d565b820191906000526020600020905b81548152906001019060200180831161266057829003601f168201915b50505050508152602001600582018054806020026020016040519081016040528092919081815260200182805480156126df57602002820191906000526020600020905b81546001600160a01b031681526001909101906020018083116126c1575b5050505050815260200160068201548152602001600782015481526020016008820180548060200260200160405190810160405280929190818152602001828054801561275557602002820191906000526020600020905b81546001600160a01b03168152600190910190602001808311612737575b505050918352505060098201546001600160a01b03166020820152600a82018054604090920191612785906131cb565b80601f01602080910402602001604051908101604052809291908181526020018280546127b1906131cb565b80156127fe5780601f106127d3576101008083540402835291602001916127fe565b820191906000526020600020905b8154815290600101906020018083116127e157829003601f168201915b50505050508152602001600b82018054612817906131cb565b80601f0160208091040260200160405190810160405280929190818152602001828054612843906131cb565b80156128905780601f1061286557610100808354040283529160200191612890565b820191906000526020600020905b81548152906001019060200180831161287357829003601f168201915b50505050508152602001600c8201548152602001600d8201548152602001600e82018054806020026020016040519081016040528092919081815260200182805480156128fc57602002820191906000526020600020905b8154815260200190600101908083116128e8575b505050505081525050905092915050565b508054612919906131cb565b6000825580601f10612929575050565b601f0160209004906000526020600020908101906122499190612a69565b50805460008255906000526020600020908101906122499190612a7e565b50805460008255906000526020600020908101906122499190612a69565b8280548282559060005260206000209081019282156129c9579160200282015b828111156129c957825182906129b99082613283565b50916020019190600101906129a3565b506129d5929150612a7e565b5090565b8280548282559060005260206000209081019282156129c95760005260206000209182015b828111156129c95781612a1184826133d5565b50916001019190600101906129fe565b828054828255906000526020600020908101928215612a615760005260206000209182015b82811115612a61578254825591600101919060010190612a46565b506129d59291505b5b808211156129d55760008155600101612a6a565b808211156129d5576000612a92828261290d565b50600101612a7e565b80356001600160a01b0381168114612ab257600080fd5b919050565b60008060008060808587031215612acd57600080fd5b8435935060208501359250612ae460408601612a9b565b9150612af260608601612a9b565b905092959194509250565b60008060408385031215612b1057600080fd5b82359150612b2060208401612a9b565b90509250929050565b600080600060608486031215612b3e57600080fd5b8335925060208401359150612b5560408501612a9b565b90509250925092565b60005b83811015612b79578181015183820152602001612b61565b50506000910152565b60008151808452612b9a816020860160208601612b5e565b601f01601f19169290920160200192915050565b600082825180855260208086019550808260051b84010181860160005b84811015612bf957601f19868403018952612be7838351612b82565b98840198925090830190600101612bcb565b5090979650505050505050565b600081518084526020808501945080840160005b83811015612c3f5781516001600160a01b031687529582019590820190600101612c1a565b509495945050505050565b600081518084526020808501945080840160005b83811015612c3f57815187529582019590820190600101612c5e565b60006101e08251818552612c9082860182612b82565b91505060208301518482036020860152612caa8282612b82565b91505060408301518482036040860152612cc48282612b82565b91505060608301518482036060860152612cde8282612bae565b91505060808301518482036080860152612cf88282612b82565b91505060a083015184820360a0860152612d128282612c06565b91505060c083015160c085015260e083015160e08501526101008084015185830382870152612d418382612c06565b9250505061012080840151612d60828701826001600160a01b03169052565b50506101408084015185830382870152612d7a8382612b82565b925050506101608084015185830382870152612d968382612b82565b925050506101808084015181860152506101a08084015181860152506101c08084015185830382870152612dca8382612c4a565b9695505050505050565b6000602080830181845280855180835260408601915060408160051b870101925083870160005b82811015612e2957603f19888603018452612e17858351612c7a565b94509285019290850190600101612dfb565b5092979650505050505050565b634e487b7160e01b600052604160045260246000fd5b60405160e0810167ffffffffffffffff81118282101715612e6f57612e6f612e36565b60405290565b604051601f8201601f1916810167ffffffffffffffff81118282101715612e9e57612e9e612e36565b604052919050565b600082601f830112612eb757600080fd5b813567ffffffffffffffff811115612ed157612ed1612e36565b612ee4601f8201601f1916602001612e75565b818152846020838601011115612ef957600080fd5b816020850160208301376000918101602001919091529392505050565b600080600060608486031215612f2b57600080fd5b83359250612f3b60208501612a9b565b9150604084013567ffffffffffffffff811115612f5757600080fd5b612f6386828701612ea6565b9150509250925092565b600082601f830112612f7e57600080fd5b8135602067ffffffffffffffff80831115612f9b57612f9b612e36565b8260051b612faa838201612e75565b9384528581018301938381019088861115612fc457600080fd5b84880192505b8583101561300057823584811115612fe25760008081fd5b612ff08a87838c0101612ea6565b8352509184019190840190612fca565b98975050505050505050565b60008060006060848603121561302157600080fd5b8335925061303160208501612a9b565b9150604084013567ffffffffffffffff8082111561304e57600080fd5b9085019060e0828803121561306257600080fd5b61306a612e4c565b82358281111561307957600080fd5b61308589828601612ea6565b82525060208301358281111561309a57600080fd5b6130a689828601612ea6565b6020830152506040830135828111156130be57600080fd5b6130ca89828601612ea6565b6040830152506060830135828111156130e257600080fd5b6130ee89828601612f6d565b60608301525060808301358281111561310657600080fd5b61311289828601612ea6565b60808301525060a08301358281111561312a57600080fd5b61313689828601612ea6565b60a08301525060c08301358281111561314e57600080fd5b61315a89828601612ea6565b60c0830152508093505050509250925092565b60006020828403121561317f57600080fd5b61318882612a9b565b9392505050565b6020815260006131886020830184612c7a565b634e487b7160e01b600052601160045260246000fd5b81810381811115610400576104006131a2565b600181811c908216806131df57607f821691505b6020821081036131ff57634e487b7160e01b600052602260045260246000fd5b50919050565b634e487b7160e01b600052603260045260246000fd5b60006001820161322d5761322d6131a2565b5060010190565b601f82111561327e57600081815260208120601f850160051c8101602086101561325b5750805b601f850160051c820191505b8181101561327a57828155600101613267565b5050505b505050565b815167ffffffffffffffff81111561329d5761329d612e36565b6132b1816132ab84546131cb565b84613234565b602080601f8311600181146132e657600084156132ce5750858301515b600019600386901b1c1916600185901b17855561327a565b600085815260208120601f198616915b82811015613315578886015182559484019460019091019084016132f6565b50858210156133335787850151600019600388901b60f8161c191681555b5050505050600190811b01905550565b60008251613355818460208701612b5e565b9190910192915050565b600080835461336d816131cb565b60018281168015613385576001811461339a576133c9565b60ff19841687528215158302870194506133c9565b8760005260208060002060005b858110156133c05781548a8201529084019082016133a7565b50505082870194505b50929695505050505050565b8181036133e0575050565b6133ea82546131cb565b67ffffffffffffffff81111561340257613402612e36565b613410816132ab84546131cb565b6000601f821160018114613444576000831561342c5750848201545b600019600385901b1c1916600184901b1784556134a9565b600085815260209020601f19841690600086815260209020845b8381101561347e578286015482556001958601959091019060200161345e565b508583101561349c5781850154600019600388901b60f8161c191681555b50505060018360011b0184555b5050505050565b80820180821115610400576104006131a256fea2646970667358221220d491d6a600c7e54f646d33a00efdc84cd8bf1e4479033d100c713de716c4e6a764736f6c63430008140033",
  "linkReferences": {},
  "deployedLinkReferences": {}
}